{
  "_format": "hh-sol-artifact-1",
  "contractName": "Loyalty",
  "sourceName": "contracts/loyalty.sol",
  "abi": [
    {
      "inputs": [
        {
          "internalType": "contract PointToken",
          "name": "_pointToken",
          "type": "address"
        }
      ],
      "stateMutability": "nonpayable",
      "type": "constructor"
    },
    {
      "inputs": [
        {
          "internalType": "address",
          "name": "owner",
          "type": "address"
        }
      ],
      "name": "OwnableInvalidOwner",
      "type": "error"
    },
    {
      "inputs": [
        {
          "internalType": "address",
          "name": "account",
          "type": "address"
        }
      ],
      "name": "OwnableUnauthorizedAccount",
      "type": "error"
    },
    {
      "anonymous": false,
      "inputs": [
        {
          "indexed": true,
          "internalType": "address",
          "name": "buyer",
          "type": "address"
        },
        {
          "indexed": false,
          "internalType": "uint256",
          "name": "amount",
          "type": "uint256"
        },
        {
          "indexed": false,
          "internalType": "string",
          "name": "refId",
          "type": "string"
        }
      ],
      "name": "OffChainPurchase",
      "type": "event"
    },
    {
      "anonymous": false,
      "inputs": [
        {
          "indexed": true,
          "internalType": "address",
          "name": "previousOwner",
          "type": "address"
        },
        {
          "indexed": true,
          "internalType": "address",
          "name": "newOwner",
          "type": "address"
        }
      ],
      "name": "OwnershipTransferred",
      "type": "event"
    },
    {
      "inputs": [
        {
          "internalType": "string",
          "name": "name",
          "type": "string"
        },
        {
          "internalType": "string",
          "name": "symbol",
          "type": "string"
        }
      ],
      "name": "createNftCollection",
      "outputs": [],
      "stateMutability": "nonpayable",
      "type": "function"
    },
    {
      "inputs": [],
      "name": "dailyRewardClaim",
      "outputs": [],
      "stateMutability": "nonpayable",
      "type": "function"
    },
    {
      "inputs": [
        {
          "internalType": "address",
          "name": "nftCollection",
          "type": "address"
        }
      ],
      "name": "mintNft",
      "outputs": [],
      "stateMutability": "nonpayable",
      "type": "function"
    },
    {
      "inputs": [
        {
          "internalType": "address",
          "name": "",
          "type": "address"
        }
      ],
      "name": "nextClaimTime",
      "outputs": [
        {
          "internalType": "uint256",
          "name": "",
          "type": "uint256"
        }
      ],
      "stateMutability": "view",
      "type": "function"
    },
    {
      "inputs": [
        {
          "internalType": "uint256",
          "name": "",
          "type": "uint256"
        }
      ],
      "name": "nftCollections",
      "outputs": [
        {
          "internalType": "address",
          "name": "",
          "type": "address"
        }
      ],
      "stateMutability": "view",
      "type": "function"
    },
    {
      "inputs": [
        {
          "internalType": "uint256",
          "name": "amount",
          "type": "uint256"
        },
        {
          "internalType": "string",
          "name": "refId",
          "type": "string"
        }
      ],
      "name": "offChainPurchase",
      "outputs": [],
      "stateMutability": "payable",
      "type": "function"
    },
    {
      "inputs": [],
      "name": "owner",
      "outputs": [
        {
          "internalType": "address",
          "name": "",
          "type": "address"
        }
      ],
      "stateMutability": "view",
      "type": "function"
    },
    {
      "inputs": [],
      "name": "pointToken",
      "outputs": [
        {
          "internalType": "contract PointToken",
          "name": "",
          "type": "address"
        }
      ],
      "stateMutability": "view",
      "type": "function"
    },
    {
      "inputs": [],
      "name": "renounceOwnership",
      "outputs": [],
      "stateMutability": "nonpayable",
      "type": "function"
    },
    {
      "inputs": [
        {
          "internalType": "address",
          "name": "newOwner",
          "type": "address"
        }
      ],
      "name": "transferOwnership",
      "outputs": [],
      "stateMutability": "nonpayable",
      "type": "function"
    },
    {
      "inputs": [],
      "name": "withdraw",
      "outputs": [],
      "stateMutability": "nonpayable",
      "type": "function"
    }
  ],
  "bytecode": "0x608060405234801561001057600080fd5b50604051612cc5380380612cc583398101604081905261002f916100d4565b338061005557604051631e4fbdf760e01b81526000600482015260240160405180910390fd5b61005e81610084565b50600180546001600160a01b0319166001600160a01b0392909216919091179055610104565b600080546001600160a01b038381166001600160a01b0319831681178455604051919092169283917f8be0079c531659141344cd1fd0a4f28419497f9722a3daafe3b4186f6b6457e09190a35050565b6000602082840312156100e657600080fd5b81516001600160a01b03811681146100fd57600080fd5b9392505050565b612bb2806101136000396000f3fe608060405260043610620000cb5760003560e01c80638da5cb5b116200007d578063d07fd1541162000054578063d07fd154146200022a578063e9c2e14b1462000241578063f2fde38b146200026657600080fd5b80638da5cb5b14620001b3578063a9039e2514620001e0578063bfca66c9146200020557600080fd5b806370f23da711620000b257806370f23da71462000143578063715018a61462000183578063799cc4e0146200019b57600080fd5b80632251d3f014620000d05780633ccfd60b1462000129575b600080fd5b348015620000dd57600080fd5b50600154620000ff9073ffffffffffffffffffffffffffffffffffffffff1681565b60405173ffffffffffffffffffffffffffffffffffffffff90911681526020015b60405180910390f35b3480156200013657600080fd5b50620001416200028b565b005b3480156200015057600080fd5b50620001746200016236600462000b7f565b60026020526000908152604090205481565b60405190815260200162000120565b3480156200019057600080fd5b5062000141620002e0565b348015620001a857600080fd5b5062000141620002f8565b348015620001c057600080fd5b5060005473ffffffffffffffffffffffffffffffffffffffff16620000ff565b348015620001ed57600080fd5b5062000141620001ff36600462000ca0565b62000431565b3480156200021257600080fd5b50620000ff6200022436600462000d0b565b620004e8565b620001416200023b36600462000d25565b62000520565b3480156200024e57600080fd5b50620001416200026036600462000b7f565b62000820565b3480156200027357600080fd5b50620001416200028536600462000b7f565b62000a40565b6200029562000aa7565b6000805460405173ffffffffffffffffffffffffffffffffffffffff909116914780156108fc02929091818181858888f19350505050158015620002dd573d6000803e3d6000fd5b50565b620002ea62000aa7565b620002f6600062000afc565b565b3360009081526002602052604090205442101562000377576040517f08c379a000000000000000000000000000000000000000000000000000000000815260206004820152601e60248201527f6c6f79616c74793a20616c726561647920636c61696d656420746f646179000060448201526064015b60405180910390fd5b62000386426201518062000d95565b33600081815260026020526040908190209290925560015491517f40c10f190000000000000000000000000000000000000000000000000000000081526004810191909152670de0b6b3a7640000602482015273ffffffffffffffffffffffffffffffffffffffff909116906340c10f1990604401600060405180830381600087803b1580156200041657600080fd5b505af11580156200042b573d6000803e3d6000fd5b50505050565b60008282604051620004439062000b71565b6200045092919062000e17565b604051809103906000f0801580156200046d573d6000803e3d6000fd5b50600380546001810182556000919091527fc2575a0e9e593c00f959f8c92f12db2869c3395a3b0502d05e2516446f71f85b0180547fffffffffffffffffffffffff00000000000000000000000000000000000000001673ffffffffffffffffffffffffffffffffffffffff92909216919091179055505050565b60038181548110620004f957600080fd5b60009182526020909120015473ffffffffffffffffffffffffffffffffffffffff16905081565b6000805b600354811015620006055760006003828154811062000547576200054762000e49565b6000918252602090912001546040517f70a0823100000000000000000000000000000000000000000000000000000000815233600482015273ffffffffffffffffffffffffffffffffffffffff909116906370a0823190602401602060405180830381865afa158015620005bf573d6000803e3d6000fd5b505050506040513d601f19601f82011682018060405250810190620005e5919062000e78565b1115620005fc5781620005f88162000e92565b9250505b60010162000524565b50801562000738576000606482116200061f578162000622565b60645b90506000606462000634838262000ecd565b62000640908762000ee3565b6200064c919062000efd565b9050803414620006df576040517f08c379a000000000000000000000000000000000000000000000000000000000815260206004820152602c60248201527f6c6f79616c74793a20696e636f727265637420646973636f756e74656420706160448201527f796d656e7420616d6f756e74000000000000000000000000000000000000000060648201526084016200036e565b3373ffffffffffffffffffffffffffffffffffffffff167fbaf420ec7db38b3ccd3c281056d050677631691dde52a18b383791f630b0dd1286866040516200072992919062000f39565b60405180910390a25050505050565b823414620007c9576040517f08c379a000000000000000000000000000000000000000000000000000000000815260206004820152602160248201527f6c6f79616c74793a20696e636f7272656374207061796d656e7420616d6f756e60448201527f740000000000000000000000000000000000000000000000000000000000000060648201526084016200036e565b3373ffffffffffffffffffffffffffffffffffffffff167fbaf420ec7db38b3ccd3c281056d050677631691dde52a18b383791f630b0dd1284846040516200081392919062000f39565b60405180910390a2505050565b6001546040517f70a0823100000000000000000000000000000000000000000000000000000000815233600482015268056bc75e2d631000009173ffffffffffffffffffffffffffffffffffffffff16906370a0823190602401602060405180830381865afa15801562000898573d6000803e3d6000fd5b505050506040513d601f19601f82011682018060405250810190620008be919062000e78565b101562000928576040517f08c379a000000000000000000000000000000000000000000000000000000000815260206004820152601c60248201527f6c6f79616c74793a20696e73756666696369656e7420706f696e74730000000060448201526064016200036e565b6001546040517f9dc29fac00000000000000000000000000000000000000000000000000000000815233600482015268056bc75e2d63100000602482015273ffffffffffffffffffffffffffffffffffffffff90911690639dc29fac90604401600060405180830381600087803b158015620009a357600080fd5b505af1158015620009b8573d6000803e3d6000fd5b50506040517f6a62784200000000000000000000000000000000000000000000000000000000815233600482015273ffffffffffffffffffffffffffffffffffffffff84169250636a6278429150602401600060405180830381600087803b15801562000a2457600080fd5b505af115801562000a39573d6000803e3d6000fd5b5050505050565b62000a4a62000aa7565b73ffffffffffffffffffffffffffffffffffffffff811662000a9c576040517f1e4fbdf7000000000000000000000000000000000000000000000000000000008152600060048201526024016200036e565b620002dd8162000afc565b60005473ffffffffffffffffffffffffffffffffffffffff163314620002f6576040517f118cdaa70000000000000000000000000000000000000000000000000000000081523360048201526024016200036e565b6000805473ffffffffffffffffffffffffffffffffffffffff8381167fffffffffffffffffffffffff0000000000000000000000000000000000000000831681178455604051919092169283917f8be0079c531659141344cd1fd0a4f28419497f9722a3daafe3b4186f6b6457e09190a35050565b611c208062000f5d83390190565b60006020828403121562000b9257600080fd5b813573ffffffffffffffffffffffffffffffffffffffff8116811462000bb757600080fd5b9392505050565b7f4e487b7100000000000000000000000000000000000000000000000000000000600052604160045260246000fd5b600082601f83011262000bff57600080fd5b813567ffffffffffffffff8082111562000c1d5762000c1d62000bbe565b604051601f83017fffffffffffffffffffffffffffffffffffffffffffffffffffffffffffffffe0908116603f0116810190828211818310171562000c665762000c6662000bbe565b8160405283815286602085880101111562000c8057600080fd5b836020870160208301376000602085830101528094505050505092915050565b6000806040838503121562000cb457600080fd5b823567ffffffffffffffff8082111562000ccd57600080fd5b62000cdb8683870162000bed565b9350602085013591508082111562000cf257600080fd5b5062000d018582860162000bed565b9150509250929050565b60006020828403121562000d1e57600080fd5b5035919050565b6000806040838503121562000d3957600080fd5b82359150602083013567ffffffffffffffff81111562000d5857600080fd5b62000d018582860162000bed565b7f4e487b7100000000000000000000000000000000000000000000000000000000600052601160045260246000fd5b8082018082111562000dab5762000dab62000d66565b92915050565b6000815180845260005b8181101562000dd95760208185018101518683018201520162000dbb565b5060006020828601015260207fffffffffffffffffffffffffffffffffffffffffffffffffffffffffffffffe0601f83011685010191505092915050565b60408152600062000e2c604083018562000db1565b828103602084015262000e40818562000db1565b95945050505050565b7f4e487b7100000000000000000000000000000000000000000000000000000000600052603260045260246000fd5b60006020828403121562000e8b57600080fd5b5051919050565b60007fffffffffffffffffffffffffffffffffffffffffffffffffffffffffffffffff820362000ec65762000ec662000d66565b5060010190565b8181038181111562000dab5762000dab62000d66565b808202811582820484141762000dab5762000dab62000d66565b60008262000f34577f4e487b7100000000000000000000000000000000000000000000000000000000600052601260045260246000fd5b500490565b82815260406020820152600062000f54604083018462000db1565b94935050505056fe608060405260006007553480156200001657600080fd5b5060405162001c2038038062001c208339810160408190526200003991620001b9565b33828260006200004a8382620002b4565b506001620000598282620002b4565b5050506001600160a01b0381166200008b57604051631e4fbdf760e01b81526000600482015260240160405180910390fd5b62000096816200009f565b50505062000380565b600680546001600160a01b038381166001600160a01b0319831681179093556040519116919082907f8be0079c531659141344cd1fd0a4f28419497f9722a3daafe3b4186f6b6457e090600090a35050565b634e487b7160e01b600052604160045260246000fd5b600082601f8301126200011957600080fd5b81516001600160401b0380821115620001365762000136620000f1565b604051601f8301601f19908116603f01168101908282118183101715620001615762000161620000f1565b81604052838152602092508660208588010111156200017f57600080fd5b600091505b83821015620001a3578582018301518183018401529082019062000184565b6000602085830101528094505050505092915050565b60008060408385031215620001cd57600080fd5b82516001600160401b0380821115620001e557600080fd5b620001f38683870162000107565b935060208501519150808211156200020a57600080fd5b50620002198582860162000107565b9150509250929050565b600181811c908216806200023857607f821691505b6020821081036200025957634e487b7160e01b600052602260045260246000fd5b50919050565b601f821115620002af576000816000526020600020601f850160051c810160208610156200028a5750805b601f850160051c820191505b81811015620002ab5782815560010162000296565b5050505b505050565b81516001600160401b03811115620002d057620002d0620000f1565b620002e881620002e1845462000223565b846200025f565b602080601f831160018114620003205760008415620003075750858301515b600019600386901b1c1916600185901b178555620002ab565b600085815260208120601f198616915b82811015620003515788860151825594840194600190910190840162000330565b5085821015620003705787850151600019600388901b60f8161c191681555b5050505050600190811b01905550565b61189080620003906000396000f3fe608060405234801561001057600080fd5b50600436106101505760003560e01c80636a627842116100cd578063a22cb46511610081578063c87b56dd11610066578063c87b56dd146102b2578063e985e9c5146102c5578063f2fde38b1461030e57600080fd5b8063a22cb4651461028c578063b88d4fde1461029f57600080fd5b8063715018a6116100b2578063715018a61461025e5780638da5cb5b1461026657806395d89b411461028457600080fd5b80636a6278421461023857806370a082311461024b57600080fd5b8063095ea7b31161012457806332cb6b0c1161010957806332cb6b0c1461020957806342842e0e146102125780636352211e1461022557600080fd5b8063095ea7b3146101e157806323b872dd146101f657600080fd5b80629a9b7b1461015557806301ffc9a71461017157806306fdde0314610194578063081812fc146101a9575b600080fd5b61015e60075481565b6040519081526020015b60405180910390f35b61018461017f36600461143f565b610321565b6040519015158152602001610168565b61019c610406565b60405161016891906114ca565b6101bc6101b73660046114dd565b610498565b60405173ffffffffffffffffffffffffffffffffffffffff9091168152602001610168565b6101f46101ef36600461151f565b6104ce565b005b6101f4610204366004611549565b6104dd565b61015e6161a881565b6101f4610220366004611549565b6105d3565b6101bc6102333660046114dd565b6105f3565b6101f4610246366004611585565b6105fe565b61015e610259366004611585565b61070c565b6101f4610787565b60065473ffffffffffffffffffffffffffffffffffffffff166101bc565b61019c61079b565b6101f461029a3660046115a0565b6107aa565b6101f46102ad36600461160b565b6107b5565b61019c6102c03660046114dd565b6107cd565b6101846102d3366004611705565b73ffffffffffffffffffffffffffffffffffffffff918216600090815260056020908152604080832093909416825291909152205460ff1690565b6101f461031c366004611585565b610842565b60007fffffffff0000000000000000000000000000000000000000000000000000000082167f80ac58cd0000000000000000000000000000000000000000000000000000000014806103b457507fffffffff0000000000000000000000000000000000000000000000000000000082167f5b5e139f00000000000000000000000000000000000000000000000000000000145b8061040057507f01ffc9a7000000000000000000000000000000000000000000000000000000007fffffffff000000000000000000000000000000000000000000000000000000008316145b92915050565b60606000805461041590611738565b80601f016020809104026020016040519081016040528092919081815260200182805461044190611738565b801561048e5780601f106104635761010080835404028352916020019161048e565b820191906000526020600020905b81548152906001019060200180831161047157829003601f168201915b5050505050905090565b60006104a3826108a3565b5060008281526004602052604090205473ffffffffffffffffffffffffffffffffffffffff16610400565b6104d9828233610902565b5050565b73ffffffffffffffffffffffffffffffffffffffff8216610532576040517f64a0ae92000000000000000000000000000000000000000000000000000000008152600060048201526024015b60405180910390fd5b600061053f83833361090f565b90508373ffffffffffffffffffffffffffffffffffffffff168173ffffffffffffffffffffffffffffffffffffffff16146105cd576040517f64283d7b00000000000000000000000000000000000000000000000000000000815273ffffffffffffffffffffffffffffffffffffffff80861660048301526024820184905282166044820152606401610529565b50505050565b6105ee838383604051806020016040528060008152506107b5565b505050565b6000610400826108a3565b610606610a8c565b6161a860075410610673576040517f08c379a000000000000000000000000000000000000000000000000000000000815260206004820152601260248201527f4d617820737570706c79207265616368656400000000000000000000000000006044820152606401610529565b61067c8161070c565b156106e3576040517f08c379a000000000000000000000000000000000000000000000000000000000815260206004820152601860248201527f4f6e6c79206f6e65204e465420706572206164647265737300000000000000006044820152606401610529565b6001600760008282546106f6919061178b565b9250508190555061070981600754610adf565b50565b600073ffffffffffffffffffffffffffffffffffffffff821661075e576040517f89c62b6400000000000000000000000000000000000000000000000000000000815260006004820152602401610529565b5073ffffffffffffffffffffffffffffffffffffffff1660009081526003602052604090205490565b61078f610a8c565b6107996000610af9565b565b60606001805461041590611738565b6104d9338383610b70565b6107c08484846104dd565b6105cd3385858585610c6d565b60606107d8826108a3565b5060006107f060408051602081019091526000815290565b90506000815111610810576040518060200160405280600081525061083b565b8061081a84610e66565b60405160200161082b9291906117c5565b6040516020818303038152906040525b9392505050565b61084a610a8c565b73ffffffffffffffffffffffffffffffffffffffff811661089a576040517f1e4fbdf700000000000000000000000000000000000000000000000000000000815260006004820152602401610529565b61070981610af9565b60008181526002602052604081205473ffffffffffffffffffffffffffffffffffffffff1680610400576040517f7e27328900000000000000000000000000000000000000000000000000000000815260048101849052602401610529565b6105ee8383836001610f24565b60008281526002602052604081205473ffffffffffffffffffffffffffffffffffffffff90811690831615610949576109498184866110ef565b73ffffffffffffffffffffffffffffffffffffffff8116156109bf57610973600085600080610f24565b73ffffffffffffffffffffffffffffffffffffffff8116600090815260036020526040902080547fffffffffffffffffffffffffffffffffffffffffffffffffffffffffffffffff0190555b73ffffffffffffffffffffffffffffffffffffffff851615610a085773ffffffffffffffffffffffffffffffffffffffff85166000908152600360205260409020805460010190555b60008481526002602052604080822080547fffffffffffffffffffffffff00000000000000000000000000000000000000001673ffffffffffffffffffffffffffffffffffffffff89811691821790925591518793918516917fddf252ad1be2c89b69c2b068fc378daa952ba7f163c4a11628f55a4df523b3ef91a4949350505050565b60065473ffffffffffffffffffffffffffffffffffffffff163314610799576040517f118cdaa7000000000000000000000000000000000000000000000000000000008152336004820152602401610529565b6104d982826040518060200160405280600081525061119f565b6006805473ffffffffffffffffffffffffffffffffffffffff8381167fffffffffffffffffffffffff0000000000000000000000000000000000000000831681179093556040519116919082907f8be0079c531659141344cd1fd0a4f28419497f9722a3daafe3b4186f6b6457e090600090a35050565b73ffffffffffffffffffffffffffffffffffffffff8216610bd5576040517f5b08ba1800000000000000000000000000000000000000000000000000000000815273ffffffffffffffffffffffffffffffffffffffff83166004820152602401610529565b73ffffffffffffffffffffffffffffffffffffffff83811660008181526005602090815260408083209487168084529482529182902080547fffffffffffffffffffffffffffffffffffffffffffffffffffffffffffffff001686151590811790915591519182527f17307eab39ab6107e8899845ad3d59bd9653f200f220920489ca2b5937696c31910160405180910390a3505050565b73ffffffffffffffffffffffffffffffffffffffff83163b15610e5f576040517f150b7a0200000000000000000000000000000000000000000000000000000000815273ffffffffffffffffffffffffffffffffffffffff84169063150b7a0290610ce29088908890879087906004016117f4565b6020604051808303816000875af1925050508015610d3b575060408051601f3d9081017fffffffffffffffffffffffffffffffffffffffffffffffffffffffffffffffe0168201909252610d389181019061183d565b60015b610dca573d808015610d69576040519150601f19603f3d011682016040523d82523d6000602084013e610d6e565b606091505b508051600003610dc2576040517f64a0ae9200000000000000000000000000000000000000000000000000000000815273ffffffffffffffffffffffffffffffffffffffff85166004820152602401610529565b805181602001fd5b7fffffffff0000000000000000000000000000000000000000000000000000000081167f150b7a020000000000000000000000000000000000000000000000000000000014610e5d576040517f64a0ae9200000000000000000000000000000000000000000000000000000000815273ffffffffffffffffffffffffffffffffffffffff85166004820152602401610529565b505b5050505050565b60606000610e73836111b7565b600101905060008167ffffffffffffffff811115610e9357610e936115dc565b6040519080825280601f01601f191660200182016040528015610ebd576020820181803683370190505b5090508181016020015b7fffffffffffffffffffffffffffffffffffffffffffffffffffffffffffffffff017f3031323334353637383961626364656600000000000000000000000000000000600a86061a8153600a8504945084610ec757509392505050565b8080610f45575073ffffffffffffffffffffffffffffffffffffffff821615155b1561109a576000610f55846108a3565b905073ffffffffffffffffffffffffffffffffffffffff831615801590610fa857508273ffffffffffffffffffffffffffffffffffffffff168173ffffffffffffffffffffffffffffffffffffffff1614155b8015610fe7575073ffffffffffffffffffffffffffffffffffffffff80821660009081526005602090815260408083209387168352929052205460ff16155b15611036576040517fa9fbf51f00000000000000000000000000000000000000000000000000000000815273ffffffffffffffffffffffffffffffffffffffff84166004820152602401610529565b811561109857838573ffffffffffffffffffffffffffffffffffffffff168273ffffffffffffffffffffffffffffffffffffffff167f8c5be1e5ebec7d5bd14f71427d1e84f3dd0314c0f7b2291e5b200ac8c7c3b92560405160405180910390a45b505b5050600090815260046020526040902080547fffffffffffffffffffffffff00000000000000000000000000000000000000001673ffffffffffffffffffffffffffffffffffffffff92909216919091179055565b6110fa838383611299565b6105ee5773ffffffffffffffffffffffffffffffffffffffff831661114e576040517f7e27328900000000000000000000000000000000000000000000000000000000815260048101829052602401610529565b6040517f177e802f00000000000000000000000000000000000000000000000000000000815273ffffffffffffffffffffffffffffffffffffffff8316600482015260248101829052604401610529565b6111a98383611360565b6105ee336000858585610c6d565b6000807a184f03e93ff9f4daa797ed6e38ed64bf6a1f0100000000000000008310611200577a184f03e93ff9f4daa797ed6e38ed64bf6a1f010000000000000000830492506040015b6d04ee2d6d415b85acef8100000000831061122c576d04ee2d6d415b85acef8100000000830492506020015b662386f26fc10000831061124a57662386f26fc10000830492506010015b6305f5e1008310611262576305f5e100830492506008015b612710831061127657612710830492506004015b60648310611288576064830492506002015b600a83106104005760010192915050565b600073ffffffffffffffffffffffffffffffffffffffff83161580159061135857508273ffffffffffffffffffffffffffffffffffffffff168473ffffffffffffffffffffffffffffffffffffffff161480611327575073ffffffffffffffffffffffffffffffffffffffff80851660009081526005602090815260408083209387168352929052205460ff165b80611358575060008281526004602052604090205473ffffffffffffffffffffffffffffffffffffffff8481169116145b949350505050565b73ffffffffffffffffffffffffffffffffffffffff82166113b0576040517f64a0ae9200000000000000000000000000000000000000000000000000000000815260006004820152602401610529565b60006113be8383600061090f565b905073ffffffffffffffffffffffffffffffffffffffff8116156105ee576040517f73c6ac6e00000000000000000000000000000000000000000000000000000000815260006004820152602401610529565b7fffffffff000000000000000000000000000000000000000000000000000000008116811461070957600080fd5b60006020828403121561145157600080fd5b813561083b81611411565b60005b8381101561147757818101518382015260200161145f565b50506000910152565b6000815180845261149881602086016020860161145c565b601f017fffffffffffffffffffffffffffffffffffffffffffffffffffffffffffffffe0169290920160200192915050565b60208152600061083b6020830184611480565b6000602082840312156114ef57600080fd5b5035919050565b803573ffffffffffffffffffffffffffffffffffffffff8116811461151a57600080fd5b919050565b6000806040838503121561153257600080fd5b61153b836114f6565b946020939093013593505050565b60008060006060848603121561155e57600080fd5b611567846114f6565b9250611575602085016114f6565b9150604084013590509250925092565b60006020828403121561159757600080fd5b61083b826114f6565b600080604083850312156115b357600080fd5b6115bc836114f6565b9150602083013580151581146115d157600080fd5b809150509250929050565b7f4e487b7100000000000000000000000000000000000000000000000000000000600052604160045260246000fd5b6000806000806080858703121561162157600080fd5b61162a856114f6565b9350611638602086016114f6565b925060408501359150606085013567ffffffffffffffff8082111561165c57600080fd5b818701915087601f83011261167057600080fd5b813581811115611682576116826115dc565b604051601f82017fffffffffffffffffffffffffffffffffffffffffffffffffffffffffffffffe0908116603f011681019083821181831017156116c8576116c86115dc565b816040528281528a60208487010111156116e157600080fd5b82602086016020830137600060208483010152809550505050505092959194509250565b6000806040838503121561171857600080fd5b611721836114f6565b915061172f602084016114f6565b90509250929050565b600181811c9082168061174c57607f821691505b602082108103611785577f4e487b7100000000000000000000000000000000000000000000000000000000600052602260045260246000fd5b50919050565b80820180821115610400577f4e487b7100000000000000000000000000000000000000000000000000000000600052601160045260246000fd5b600083516117d781846020880161145c565b8351908301906117eb81836020880161145c565b01949350505050565b600073ffffffffffffffffffffffffffffffffffffffff8087168352808616602084015250836040830152608060608301526118336080830184611480565b9695505050505050565b60006020828403121561184f57600080fd5b815161083b8161141156fea264697066735822122068af38e0657c3c70d760c916ab9129f6ef553602d56d03baded8f86964b64a8f64736f6c63430008180033a26469706673582212209144c27edcc8786c1babfce3b36b0829ca8b092bb963fa1d171cc4e273df23ec64736f6c63430008180033",
  "linkReferences": {},
  "deployedLinkReferences": {}
}