{
  "_format": "hh-sol-artifact-1",
  "contractName": "PointToken",
  "sourceName": "contracts/pointToken.sol",
  "abi": [
    {
      "inputs": [],
      "stateMutability": "nonpayable",
      "type": "constructor"
    },
    {
      "inputs": [
        {
          "internalType": "address",
          "name": "spender",
          "type": "address"
        },
        {
          "internalType": "uint256",
          "name": "allowance",
          "type": "uint256"
        },
        {
          "internalType": "uint256",
          "name": "needed",
          "type": "uint256"
        }
      ],
      "name": "ERC20InsufficientAllowance",
      "type": "error"
    },
    {
      "inputs": [
        {
          "internalType": "address",
          "name": "sender",
          "type": "address"
        },
        {
          "internalType": "uint256",
          "name": "balance",
          "type": "uint256"
        },
        {
          "internalType": "uint256",
          "name": "needed",
          "type": "uint256"
        }
      ],
      "name": "ERC20InsufficientBalance",
      "type": "error"
    },
    {
      "inputs": [
        {
          "internalType": "address",
          "name": "approver",
          "type": "address"
        }
      ],
      "name": "ERC20InvalidApprover",
      "type": "error"
    },
    {
      "inputs": [
        {
          "internalType": "address",
          "name": "receiver",
          "type": "address"
        }
      ],
      "name": "ERC20InvalidReceiver",
      "type": "error"
    },
    {
      "inputs": [
        {
          "internalType": "address",
          "name": "sender",
          "type": "address"
        }
      ],
      "name": "ERC20InvalidSender",
      "type": "error"
    },
    {
      "inputs": [
        {
          "internalType": "address",
          "name": "spender",
          "type": "address"
        }
      ],
      "name": "ERC20InvalidSpender",
      "type": "error"
    },
    {
      "inputs": [
        {
          "internalType": "address",
          "name": "owner",
          "type": "address"
        }
      ],
      "name": "OwnableInvalidOwner",
      "type": "error"
    },
    {
      "inputs": [
        {
          "internalType": "address",
          "name": "account",
          "type": "address"
        }
      ],
      "name": "OwnableUnauthorizedAccount",
      "type": "error"
    },
    {
      "anonymous": false,
      "inputs": [
        {
          "indexed": true,
          "internalType": "address",
          "name": "owner",
          "type": "address"
        },
        {
          "indexed": true,
          "internalType": "address",
          "name": "spender",
          "type": "address"
        },
        {
          "indexed": false,
          "internalType": "uint256",
          "name": "value",
          "type": "uint256"
        }
      ],
      "name": "Approval",
      "type": "event"
    },
    {
      "anonymous": false,
      "inputs": [
        {
          "indexed": false,
          "internalType": "address",
          "name": "controller",
          "type": "address"
        }
      ],
      "name": "ControllerAdded",
      "type": "event"
    },
    {
      "anonymous": false,
      "inputs": [
        {
          "indexed": false,
          "internalType": "address",
          "name": "controller",
          "type": "address"
        }
      ],
      "name": "ControllerRemoved",
      "type": "event"
    },
    {
      "anonymous": false,
      "inputs": [
        {
          "indexed": true,
          "internalType": "address",
          "name": "previousOwner",
          "type": "address"
        },
        {
          "indexed": true,
          "internalType": "address",
          "name": "newOwner",
          "type": "address"
        }
      ],
      "name": "OwnershipTransferred",
      "type": "event"
    },
    {
      "anonymous": false,
      "inputs": [
        {
          "indexed": true,
          "internalType": "address",
          "name": "from",
          "type": "address"
        },
        {
          "indexed": true,
          "internalType": "address",
          "name": "to",
          "type": "address"
        },
        {
          "indexed": false,
          "internalType": "uint256",
          "name": "value",
          "type": "uint256"
        }
      ],
      "name": "Transfer",
      "type": "event"
    },
    {
      "inputs": [
        {
          "internalType": "address",
          "name": "controller",
          "type": "address"
        }
      ],
      "name": "addController",
      "outputs": [],
      "stateMutability": "nonpayable",
      "type": "function"
    },
    {
      "inputs": [
        {
          "internalType": "address",
          "name": "owner",
          "type": "address"
        },
        {
          "internalType": "address",
          "name": "spender",
          "type": "address"
        }
      ],
      "name": "allowance",
      "outputs": [
        {
          "internalType": "uint256",
          "name": "",
          "type": "uint256"
        }
      ],
      "stateMutability": "view",
      "type": "function"
    },
    {
      "inputs": [
        {
          "internalType": "address",
          "name": "spender",
          "type": "address"
        },
        {
          "internalType": "uint256",
          "name": "value",
          "type": "uint256"
        }
      ],
      "name": "approve",
      "outputs": [
        {
          "internalType": "bool",
          "name": "",
          "type": "bool"
        }
      ],
      "stateMutability": "nonpayable",
      "type": "function"
    },
    {
      "inputs": [
        {
          "internalType": "address",
          "name": "account",
          "type": "address"
        }
      ],
      "name": "balanceOf",
      "outputs": [
        {
          "internalType": "uint256",
          "name": "",
          "type": "uint256"
        }
      ],
      "stateMutability": "view",
      "type": "function"
    },
    {
      "inputs": [
        {
          "internalType": "address",
          "name": "from",
          "type": "address"
        },
        {
          "internalType": "uint256",
          "name": "amount",
          "type": "uint256"
        }
      ],
      "name": "burn",
      "outputs": [],
      "stateMutability": "nonpayable",
      "type": "function"
    },
    {
      "inputs": [],
      "name": "decimals",
      "outputs": [
        {
          "internalType": "uint8",
          "name": "",
          "type": "uint8"
        }
      ],
      "stateMutability": "view",
      "type": "function"
    },
    {
      "inputs": [
        {
          "internalType": "address",
          "name": "",
          "type": "address"
        }
      ],
      "name": "isController",
      "outputs": [
        {
          "internalType": "bool",
          "name": "",
          "type": "bool"
        }
      ],
      "stateMutability": "view",
      "type": "function"
    },
    {
      "inputs": [
        {
          "internalType": "address",
          "name": "to",
          "type": "address"
        },
        {
          "internalType": "uint256",
          "name": "amount",
          "type": "uint256"
        }
      ],
      "name": "mint",
      "outputs": [],
      "stateMutability": "nonpayable",
      "type": "function"
    },
    {
      "inputs": [],
      "name": "name",
      "outputs": [
        {
          "internalType": "string",
          "name": "",
          "type": "string"
        }
      ],
      "stateMutability": "view",
      "type": "function"
    },
    {
      "inputs": [],
      "name": "owner",
      "outputs": [
        {
          "internalType": "address",
          "name": "",
          "type": "address"
        }
      ],
      "stateMutability": "view",
      "type": "function"
    },
    {
      "inputs": [
        {
          "internalType": "address",
          "name": "controller",
          "type": "address"
        }
      ],
      "name": "removeMinter",
      "outputs": [],
      "stateMutability": "nonpayable",
      "type": "function"
    },
    {
      "inputs": [],
      "name": "renounceOwnership",
      "outputs": [],
      "stateMutability": "nonpayable",
      "type": "function"
    },
    {
      "inputs": [],
      "name": "symbol",
      "outputs": [
        {
          "internalType": "string",
          "name": "",
          "type": "string"
        }
      ],
      "stateMutability": "view",
      "type": "function"
    },
    {
      "inputs": [],
      "name": "totalSupply",
      "outputs": [
        {
          "internalType": "uint256",
          "name": "",
          "type": "uint256"
        }
      ],
      "stateMutability": "view",
      "type": "function"
    },
    {
      "inputs": [
        {
          "internalType": "address",
          "name": "to",
          "type": "address"
        },
        {
          "internalType": "uint256",
          "name": "value",
          "type": "uint256"
        }
      ],
      "name": "transfer",
      "outputs": [
        {
          "internalType": "bool",
          "name": "",
          "type": "bool"
        }
      ],
      "stateMutability": "nonpayable",
      "type": "function"
    },
    {
      "inputs": [
        {
          "internalType": "address",
          "name": "from",
          "type": "address"
        },
        {
          "internalType": "address",
          "name": "to",
          "type": "address"
        },
        {
          "internalType": "uint256",
          "name": "value",
          "type": "uint256"
        }
      ],
      "name": "transferFrom",
      "outputs": [
        {
          "internalType": "bool",
          "name": "",
          "type": "bool"
        }
      ],
      "stateMutability": "nonpayable",
      "type": "function"
    },
    {
      "inputs": [
        {
          "internalType": "address",
          "name": "newOwner",
          "type": "address"
        }
      ],
      "name": "transferOwnership",
      "outputs": [],
      "stateMutability": "nonpayable",
      "type": "function"
    }
  ],
  "bytecode": "0x60806040523480156200001157600080fd5b50336040518060400160405280600a8152602001692837b4b73a2a37b5b2b760b11b81525060405180604001604052806002815260200161141560f21b8152508160039081620000629190620001ae565b506004620000718282620001ae565b5050506001600160a01b038116620000a357604051631e4fbdf760e01b81526000600482015260240160405180910390fd5b620000ae81620000b5565b506200027a565b600580546001600160a01b038381166001600160a01b0319831681179093556040519116919082907f8be0079c531659141344cd1fd0a4f28419497f9722a3daafe3b4186f6b6457e090600090a35050565b634e487b7160e01b600052604160045260246000fd5b600181811c908216806200013257607f821691505b6020821081036200015357634e487b7160e01b600052602260045260246000fd5b50919050565b601f821115620001a9576000816000526020600020601f850160051c81016020861015620001845750805b601f850160051c820191505b81811015620001a55782815560010162000190565b5050505b505050565b81516001600160401b03811115620001ca57620001ca62000107565b620001e281620001db84546200011d565b8462000159565b602080601f8311600181146200021a5760008415620002015750858301515b600019600386901b1c1916600185901b178555620001a5565b600085815260208120601f198616915b828110156200024b578886015182559484019460019091019084016200022a565b50858210156200026a5787850151600019600388901b60f8161c191681555b5050505050600190811b01905550565b610ec7806200028a6000396000f3fe608060405234801561001057600080fd5b506004361061011b5760003560e01c8063715018a6116100b2578063a7fc7a0711610081578063b429afeb11610066578063b429afeb14610264578063dd62ed3e14610287578063f2fde38b146102cd57600080fd5b8063a7fc7a071461023e578063a9059cbb1461025157600080fd5b8063715018a6146101f35780638da5cb5b146101fb57806395d89b41146102235780639dc29fac1461022b57600080fd5b80633092afd5116100ee5780633092afd514610186578063313ce5671461019b57806340c10f19146101aa57806370a08231146101bd57600080fd5b806306fdde0314610120578063095ea7b31461013e57806318160ddd1461016157806323b872dd14610173575b600080fd5b6101286102e0565b6040516101359190610cb3565b60405180910390f35b61015161014c366004610d49565b610372565b6040519015158152602001610135565b6002545b604051908152602001610135565b610151610181366004610d73565b61038c565b610199610194366004610daf565b6103b0565b005b60405160128152602001610135565b6101996101b8366004610d49565b61043b565b6101656101cb366004610daf565b73ffffffffffffffffffffffffffffffffffffffff1660009081526020819052604090205490565b6101996104ed565b60055460405173ffffffffffffffffffffffffffffffffffffffff9091168152602001610135565b610128610501565b610199610239366004610d49565b610510565b61019961024c366004610daf565b6105b9565b61015161025f366004610d49565b610640565b610151610272366004610daf565b60066020526000908152604090205460ff1681565b610165610295366004610dd1565b73ffffffffffffffffffffffffffffffffffffffff918216600090815260016020908152604080832093909416825291909152205490565b6101996102db366004610daf565b61064e565b6060600380546102ef90610e04565b80601f016020809104026020016040519081016040528092919081815260200182805461031b90610e04565b80156103685780601f1061033d57610100808354040283529160200191610368565b820191906000526020600020905b81548152906001019060200180831161034b57829003601f168201915b5050505050905090565b6000336103808185856106b2565b60019150505b92915050565b60003361039a8582856106c4565b6103a5858585610793565b506001949350505050565b6103b861083e565b73ffffffffffffffffffffffffffffffffffffffff811660008181526006602090815260409182902080547fffffffffffffffffffffffffffffffffffffffffffffffffffffffffffffff0016905590519182527f33d83959be2573f5453b12eb9d43b3499bc57d96bd2f067ba44803c859e8111391015b60405180910390a150565b3360009081526006602052604090205460ff166104df576040517f08c379a000000000000000000000000000000000000000000000000000000000815260206004820152602860248201527f506f696e74546f6b656e3a2063616c6c6572206973206e6f742074686520636f60448201527f6e74726f6c6c657200000000000000000000000000000000000000000000000060648201526084015b60405180910390fd5b6104e98282610891565b5050565b6104f561083e565b6104ff60006108ed565b565b6060600480546102ef90610e04565b3360009081526006602052604090205460ff166105af576040517f08c379a000000000000000000000000000000000000000000000000000000000815260206004820152602860248201527f506f696e74546f6b656e3a2063616c6c6572206973206e6f742074686520636f60448201527f6e74726f6c6c657200000000000000000000000000000000000000000000000060648201526084016104d6565b6104e98282610964565b6105c161083e565b73ffffffffffffffffffffffffffffffffffffffff811660008181526006602090815260409182902080547fffffffffffffffffffffffffffffffffffffffffffffffffffffffffffffff0016600117905590519182527f0a8bb31534c0ed46f380cb867bd5c803a189ced9a764e30b3a4991a9901d74749101610430565b600033610380818585610793565b61065661083e565b73ffffffffffffffffffffffffffffffffffffffff81166106a6576040517f1e4fbdf7000000000000000000000000000000000000000000000000000000008152600060048201526024016104d6565b6106af816108ed565b50565b6106bf83838360016109c0565b505050565b73ffffffffffffffffffffffffffffffffffffffff8381166000908152600160209081526040808320938616835292905220547fffffffffffffffffffffffffffffffffffffffffffffffffffffffffffffffff811461078d578181101561077e576040517ffb8f41b200000000000000000000000000000000000000000000000000000000815273ffffffffffffffffffffffffffffffffffffffff8416600482015260248101829052604481018390526064016104d6565b61078d848484840360006109c0565b50505050565b73ffffffffffffffffffffffffffffffffffffffff83166107e3576040517f96c6fd1e000000000000000000000000000000000000000000000000000000008152600060048201526024016104d6565b73ffffffffffffffffffffffffffffffffffffffff8216610833576040517fec442f05000000000000000000000000000000000000000000000000000000008152600060048201526024016104d6565b6106bf838383610b08565b60055473ffffffffffffffffffffffffffffffffffffffff1633146104ff576040517f118cdaa70000000000000000000000000000000000000000000000000000000081523360048201526024016104d6565b73ffffffffffffffffffffffffffffffffffffffff82166108e1576040517fec442f05000000000000000000000000000000000000000000000000000000008152600060048201526024016104d6565b6104e960008383610b08565b6005805473ffffffffffffffffffffffffffffffffffffffff8381167fffffffffffffffffffffffff0000000000000000000000000000000000000000831681179093556040519116919082907f8be0079c531659141344cd1fd0a4f28419497f9722a3daafe3b4186f6b6457e090600090a35050565b73ffffffffffffffffffffffffffffffffffffffff82166109b4576040517f96c6fd1e000000000000000000000000000000000000000000000000000000008152600060048201526024016104d6565b6104e982600083610b08565b73ffffffffffffffffffffffffffffffffffffffff8416610a10576040517fe602df05000000000000000000000000000000000000000000000000000000008152600060048201526024016104d6565b73ffffffffffffffffffffffffffffffffffffffff8316610a60576040517f94280d62000000000000000000000000000000000000000000000000000000008152600060048201526024016104d6565b73ffffffffffffffffffffffffffffffffffffffff8085166000908152600160209081526040808320938716835292905220829055801561078d578273ffffffffffffffffffffffffffffffffffffffff168473ffffffffffffffffffffffffffffffffffffffff167f8c5be1e5ebec7d5bd14f71427d1e84f3dd0314c0f7b2291e5b200ac8c7c3b92584604051610afa91815260200190565b60405180910390a350505050565b73ffffffffffffffffffffffffffffffffffffffff8316610b40578060026000828254610b359190610e57565b90915550610bf29050565b73ffffffffffffffffffffffffffffffffffffffff831660009081526020819052604090205481811015610bc6576040517fe450d38c00000000000000000000000000000000000000000000000000000000815273ffffffffffffffffffffffffffffffffffffffff8516600482015260248101829052604481018390526064016104d6565b73ffffffffffffffffffffffffffffffffffffffff841660009081526020819052604090209082900390555b73ffffffffffffffffffffffffffffffffffffffff8216610c1b57600280548290039055610c47565b73ffffffffffffffffffffffffffffffffffffffff821660009081526020819052604090208054820190555b8173ffffffffffffffffffffffffffffffffffffffff168373ffffffffffffffffffffffffffffffffffffffff167fddf252ad1be2c89b69c2b068fc378daa952ba7f163c4a11628f55a4df523b3ef83604051610ca691815260200190565b60405180910390a3505050565b60006020808352835180602085015260005b81811015610ce157858101830151858201604001528201610cc5565b5060006040828601015260407fffffffffffffffffffffffffffffffffffffffffffffffffffffffffffffffe0601f8301168501019250505092915050565b803573ffffffffffffffffffffffffffffffffffffffff81168114610d4457600080fd5b919050565b60008060408385031215610d5c57600080fd5b610d6583610d20565b946020939093013593505050565b600080600060608486031215610d8857600080fd5b610d9184610d20565b9250610d9f60208501610d20565b9150604084013590509250925092565b600060208284031215610dc157600080fd5b610dca82610d20565b9392505050565b60008060408385031215610de457600080fd5b610ded83610d20565b9150610dfb60208401610d20565b90509250929050565b600181811c90821680610e1857607f821691505b602082108103610e51577f4e487b7100000000000000000000000000000000000000000000000000000000600052602260045260246000fd5b50919050565b80820180821115610386577f4e487b7100000000000000000000000000000000000000000000000000000000600052601160045260246000fdfea26469706673582212205a2c488158d234b163166662e5de3044861ca819e62cb70efcb736c246110b4b64736f6c63430008180033",
  "linkReferences": {},
  "deployedLinkReferences": {}
}